{
  "contractName": "UniswapIntegration",
  "abi": [
    {
      "inputs": [
        {
          "internalType": "address",
          "name": "_uniswap",
          "type": "address"
        }
      ],
      "stateMutability": "nonpayable",
      "type": "constructor"
    },
    {
      "inputs": [],
      "name": "factory",
      "outputs": [
        {
          "internalType": "contract IUniswapV2Factory",
          "name": "",
          "type": "address"
        }
      ],
      "stateMutability": "view",
      "type": "function",
      "constant": true
    },
    {
      "inputs": [],
      "name": "owner",
      "outputs": [
        {
          "internalType": "address",
          "name": "",
          "type": "address"
        }
      ],
      "stateMutability": "view",
      "type": "function",
      "constant": true
    },
    {
      "inputs": [
        {
          "internalType": "uint256",
          "name": "",
          "type": "uint256"
        }
      ],
      "name": "tokenList",
      "outputs": [
        {
          "internalType": "bytes32",
          "name": "",
          "type": "bytes32"
        }
      ],
      "stateMutability": "view",
      "type": "function",
      "constant": true
    },
    {
      "inputs": [
        {
          "internalType": "bytes32",
          "name": "",
          "type": "bytes32"
        }
      ],
      "name": "tokens",
      "outputs": [
        {
          "internalType": "bytes32",
          "name": "ticker",
          "type": "bytes32"
        },
        {
          "internalType": "address",
          "name": "tokenAddress",
          "type": "address"
        }
      ],
      "stateMutability": "view",
      "type": "function",
      "constant": true
    },
    {
      "inputs": [],
      "name": "uniswap",
      "outputs": [
        {
          "internalType": "contract IUniswapV2Router",
          "name": "",
          "type": "address"
        }
      ],
      "stateMutability": "view",
      "type": "function",
      "constant": true
    },
    {
      "inputs": [
        {
          "internalType": "bytes32",
          "name": "ticker",
          "type": "bytes32"
        },
        {
          "internalType": "address",
          "name": "tokenAddress",
          "type": "address"
        }
      ],
      "name": "addToken",
      "outputs": [],
      "stateMutability": "nonpayable",
      "type": "function"
    },
    {
      "inputs": [],
      "name": "getTokens",
      "outputs": [
        {
          "components": [
            {
              "internalType": "bytes32",
              "name": "ticker",
              "type": "bytes32"
            },
            {
              "internalType": "address",
              "name": "tokenAddress",
              "type": "address"
            }
          ],
          "internalType": "struct UniswapIntegration.Token[]",
          "name": "",
          "type": "tuple[]"
        }
      ],
      "stateMutability": "view",
      "type": "function",
      "constant": true
    },
    {
      "inputs": [
        {
          "internalType": "bytes32",
          "name": "ticker",
          "type": "bytes32"
        },
        {
          "internalType": "uint256",
          "name": "amount",
          "type": "uint256"
        }
      ],
      "name": "deposit",
      "outputs": [],
      "stateMutability": "nonpayable",
      "type": "function"
    },
    {
      "inputs": [
        {
          "internalType": "bytes32",
          "name": "ticker",
          "type": "bytes32"
        },
        {
          "internalType": "uint256",
          "name": "amount",
          "type": "uint256"
        }
      ],
      "name": "withdraw",
      "outputs": [],
      "stateMutability": "nonpayable",
      "type": "function"
    },
    {
      "inputs": [
        {
          "internalType": "address",
          "name": "_tokenIn",
          "type": "address"
        },
        {
          "internalType": "address",
          "name": "_tokenOut",
          "type": "address"
        },
        {
          "internalType": "uint256",
          "name": "_amountIn",
          "type": "uint256"
        },
        {
          "internalType": "uint256",
          "name": "_amountOut",
          "type": "uint256"
        },
        {
          "internalType": "address",
          "name": "_to",
          "type": "address"
        }
      ],
      "name": "swap",
      "outputs": [],
      "stateMutability": "nonpayable",
      "type": "function"
    },
    {
      "inputs": [
        {
          "internalType": "address",
          "name": "_tokenIn",
          "type": "address"
        },
        {
          "internalType": "address",
          "name": "_tokenOut",
          "type": "address"
        },
        {
          "internalType": "uint256",
          "name": "_amountIn",
          "type": "uint256"
        }
      ],
      "name": "getAmountOutMin",
      "outputs": [
        {
          "internalType": "uint256",
          "name": "",
          "type": "uint256"
        }
      ],
      "stateMutability": "view",
      "type": "function",
      "constant": true
    },
    {
      "inputs": [
        {
          "internalType": "address",
          "name": "_tokenA",
          "type": "address"
        },
        {
          "internalType": "address",
          "name": "_tokenB",
          "type": "address"
        },
        {
          "internalType": "uint256",
          "name": "_amountA",
          "type": "uint256"
        },
        {
          "internalType": "uint256",
          "name": "_amountB",
          "type": "uint256"
        }
      ],
      "name": "addLiquidity",
      "outputs": [
        {
          "internalType": "uint256",
          "name": "",
          "type": "uint256"
        },
        {
          "internalType": "uint256",
          "name": "",
          "type": "uint256"
        },
        {
          "internalType": "uint256",
          "name": "",
          "type": "uint256"
        }
      ],
      "stateMutability": "nonpayable",
      "type": "function"
    },
    {
      "inputs": [
        {
          "internalType": "address",
          "name": "_tokenA",
          "type": "address"
        },
        {
          "internalType": "address",
          "name": "_tokenB",
          "type": "address"
        }
      ],
      "name": "removeLiquidity",
      "outputs": [
        {
          "internalType": "uint256",
          "name": "",
          "type": "uint256"
        },
        {
          "internalType": "uint256",
          "name": "",
          "type": "uint256"
        }
      ],
      "stateMutability": "nonpayable",
      "type": "function"
    }
  ],
  "bytecode": "0x60806040523480156200001157600080fd5b50604051620029a6380380620029a68339818101604052810190620000379190620001b8565b806000806101000a81548173ffffffffffffffffffffffffffffffffffffffff021916908373ffffffffffffffffffffffffffffffffffffffff16021790555060008054906101000a900473ffffffffffffffffffffffffffffffffffffffff1673ffffffffffffffffffffffffffffffffffffffff1663c45a01556040518163ffffffff1660e01b815260040160206040518083038186803b158015620000de57600080fd5b505afa158015620000f3573d6000803e3d6000fd5b505050506040513d601f19601f82011682018060405250810190620001199190620001b8565b600160006101000a81548173ffffffffffffffffffffffffffffffffffffffff021916908373ffffffffffffffffffffffffffffffffffffffff16021790555033600260006101000a81548173ffffffffffffffffffffffffffffffffffffffff021916908373ffffffffffffffffffffffffffffffffffffffff1602179055505062000232565b600081519050620001b28162000218565b92915050565b600060208284031215620001cb57600080fd5b6000620001db84828501620001a1565b91505092915050565b6000620001f182620001f8565b9050919050565b600073ffffffffffffffffffffffffffffffffffffffff82169050919050565b6200022381620001e4565b81146200022f57600080fd5b50565b61276480620002426000396000f3fe608060405234801561001057600080fd5b50600436106100cf5760003560e01c80639776aacf1161008c578063aa6ca80811610066578063aa6ca80814610226578063c45a015514610244578063cf6c62ea14610262578063d5bcb9b514610294576100cf565b80639776aacf146101a95780639cf38f7c146101c55780639ead7222146101f6576100cf565b8063040cf020146100d45780631de26e16146100f05780632681f7e41461010c5780633c50eec11461012a5780638da5cb5b1461015a578063904194a314610178575b600080fd5b6100ee60048036038101906100e99190611e38565b6102b0565b005b61010a60048036038101906101059190611e38565b6104df565b005b6101146105af565b60405161012191906123ae565b60405180910390f35b610144600480360381019061013f9190611c40565b6105d3565b6040516101519190612409565b60405180910390f35b610162610af2565b60405161016f9190612173565b60405180910390f35b610192600480360381019061018d9190611dd3565b610b18565b6040516101a092919061236a565b60405180910390f35b6101c360048036038101906101be9190611dfc565b610b5c565b005b6101df60048036038101906101da9190611c04565b610cab565b6040516101ed929190612454565b60405180910390f35b610210600480360381019061020b9190611e74565b610f6b565b60405161021d919061234f565b60405180910390f35b61022e610f8f565b60405161023b919061232d565b60405180910390f35b61024c6110cd565b6040516102599190612393565b60405180910390f35b61027c60048036038101906102779190611c8f565b6110f3565b60405161028b939291906124d7565b60405180910390f35b6102ae60048036038101906102a99190611cf2565b611450565b005b600260009054906101000a900473ffffffffffffffffffffffffffffffffffffffff1673ffffffffffffffffffffffffffffffffffffffff163373ffffffffffffffffffffffffffffffffffffffff1614610340576040517f08c379a0000000000000000000000000000000000000000000000000000000008152600401610337906123e9565b60405180910390fd5b60006003600084815260200190815260200160002060010160009054906101000a900473ffffffffffffffffffffffffffffffffffffffff16905060008173ffffffffffffffffffffffffffffffffffffffff166370a08231306040518263ffffffff1660e01b81526004016103b69190612173565b60206040518083038186803b1580156103ce57600080fd5b505afa1580156103e2573d6000803e3d6000fd5b505050506040513d601f19601f820116820180604052508101906104069190611e9d565b90508281101561044b576040517f08c379a0000000000000000000000000000000000000000000000000000000008152600401610442906123c9565b60405180910390fd5b8173ffffffffffffffffffffffffffffffffffffffff1663a9059cbb33856040518363ffffffff1660e01b81526004016104869291906121c5565b602060405180830381600087803b1580156104a057600080fd5b505af11580156104b4573d6000803e3d6000fd5b505050506040513d601f19601f820116820180604052508101906104d89190611daa565b5050505050565b60006003600084815260200190815260200160002060010160009054906101000a900473ffffffffffffffffffffffffffffffffffffffff1690508073ffffffffffffffffffffffffffffffffffffffff166323b872dd3330856040518463ffffffff1660e01b81526004016105579392919061218e565b602060405180830381600087803b15801561057157600080fd5b505af1158015610585573d6000803e3d6000fd5b505050506040513d601f19601f820116820180604052508101906105a99190611daa565b50505050565b60008054906101000a900473ffffffffffffffffffffffffffffffffffffffff1681565b6000606060008054906101000a900473ffffffffffffffffffffffffffffffffffffffff1673ffffffffffffffffffffffffffffffffffffffff1663ad5c46486040518163ffffffff1660e01b815260040160206040518083038186803b15801561063d57600080fd5b505afa158015610651573d6000803e3d6000fd5b505050506040513d601f19601f820116820180604052508101906106759190611bdb565b73ffffffffffffffffffffffffffffffffffffffff168573ffffffffffffffffffffffffffffffffffffffff161480610776575060008054906101000a900473ffffffffffffffffffffffffffffffffffffffff1673ffffffffffffffffffffffffffffffffffffffff1663ad5c46486040518163ffffffff1660e01b815260040160206040518083038186803b15801561070f57600080fd5b505afa158015610723573d6000803e3d6000fd5b505050506040513d601f19601f820116820180604052508101906107479190611bdb565b73ffffffffffffffffffffffffffffffffffffffff168473ffffffffffffffffffffffffffffffffffffffff16145b1561085a57600267ffffffffffffffff8111801561079357600080fd5b506040519080825280602002602001820160405280156107c25781602001602082028036833780820191505090505b50905084816000815181106107d357fe5b602002602001019073ffffffffffffffffffffffffffffffffffffffff16908173ffffffffffffffffffffffffffffffffffffffff1681525050838160018151811061081b57fe5b602002602001019073ffffffffffffffffffffffffffffffffffffffff16908173ffffffffffffffffffffffffffffffffffffffff1681525050610a1a565b600367ffffffffffffffff8111801561087257600080fd5b506040519080825280602002602001820160405280156108a15781602001602082028036833780820191505090505b50905084816000815181106108b257fe5b602002602001019073ffffffffffffffffffffffffffffffffffffffff16908173ffffffffffffffffffffffffffffffffffffffff168152505060008054906101000a900473ffffffffffffffffffffffffffffffffffffffff1673ffffffffffffffffffffffffffffffffffffffff1663ad5c46486040518163ffffffff1660e01b815260040160206040518083038186803b15801561095257600080fd5b505afa158015610966573d6000803e3d6000fd5b505050506040513d601f19601f8201168201806040525081019061098a9190611bdb565b8160018151811061099757fe5b602002602001019073ffffffffffffffffffffffffffffffffffffffff16908173ffffffffffffffffffffffffffffffffffffffff168152505083816002815181106109df57fe5b602002602001019073ffffffffffffffffffffffffffffffffffffffff16908173ffffffffffffffffffffffffffffffffffffffff16815250505b60008060009054906101000a900473ffffffffffffffffffffffffffffffffffffffff1673ffffffffffffffffffffffffffffffffffffffff1663d06ca61f85846040518363ffffffff1660e01b8152600401610a78929190612424565b60006040518083038186803b158015610a9057600080fd5b505afa158015610aa4573d6000803e3d6000fd5b505050506040513d6000823e3d601f19601f82011682018060405250810190610acd9190611d69565b905080600183510381518110610adf57fe5b6020026020010151925050509392505050565b600260009054906101000a900473ffffffffffffffffffffffffffffffffffffffff1681565b60036020528060005260406000206000915090508060000154908060010160009054906101000a900473ffffffffffffffffffffffffffffffffffffffff16905082565b600260009054906101000a900473ffffffffffffffffffffffffffffffffffffffff1673ffffffffffffffffffffffffffffffffffffffff163373ffffffffffffffffffffffffffffffffffffffff1614610bec576040517f08c379a0000000000000000000000000000000000000000000000000000000008152600401610be3906123e9565b60405180910390fd5b60405180604001604052808381526020018273ffffffffffffffffffffffffffffffffffffffff16815250600360008481526020019081526020016000206000820151816000015560208201518160010160006101000a81548173ffffffffffffffffffffffffffffffffffffffff021916908373ffffffffffffffffffffffffffffffffffffffff16021790555090505060048290806001815401808255809150506001900390600052602060002001600090919091909150555050565b6000806000600160009054906101000a900473ffffffffffffffffffffffffffffffffffffffff1673ffffffffffffffffffffffffffffffffffffffff1663e6a4390586866040518363ffffffff1660e01b8152600401610d0d9291906121ee565b602060405180830381600087803b158015610d2757600080fd5b505af1158015610d3b573d6000803e3d6000fd5b505050506040513d601f19601f82011682018060405250810190610d5f9190611bdb565b905060008173ffffffffffffffffffffffffffffffffffffffff166370a08231306040518263ffffffff1660e01b8152600401610d9c9190612173565b60206040518083038186803b158015610db457600080fd5b505afa158015610dc8573d6000803e3d6000fd5b505050506040513d601f19601f82011682018060405250810190610dec9190611e9d565b90508173ffffffffffffffffffffffffffffffffffffffff1663095ea7b360008054906101000a900473ffffffffffffffffffffffffffffffffffffffff16836040518363ffffffff1660e01b8152600401610e49929190612304565b602060405180830381600087803b158015610e6357600080fd5b505af1158015610e77573d6000803e3d6000fd5b505050506040513d601f19601f82011682018060405250810190610e9b9190611daa565b5060008060008054906101000a900473ffffffffffffffffffffffffffffffffffffffff1673ffffffffffffffffffffffffffffffffffffffff1663baa2abde89898660018030426040518863ffffffff1660e01b8152600401610f059796959493929190612217565b6040805180830381600087803b158015610f1e57600080fd5b505af1158015610f32573d6000803e3d6000fd5b505050506040513d601f19601f82011682018060405250810190610f569190611ec6565b91509150818195509550505050509250929050565b60048181548110610f7b57600080fd5b906000526020600020016000915090505481565b6060600060048054905067ffffffffffffffff81118015610faf57600080fd5b50604051908082528060200260200182016040528015610fe957816020015b610fd6611a94565b815260200190600190039081610fce5790505b50905060005b6004805490508110156110c5576040518060400160405280600360006004858154811061101857fe5b90600052602060002001548152602001908152602001600020600001548152602001600360006004858154811061104b57fe5b9060005260206000200154815260200190815260200160002060010160009054906101000a900473ffffffffffffffffffffffffffffffffffffffff1673ffffffffffffffffffffffffffffffffffffffff168152508282815181106110ad57fe5b60200260200101819052508080600101915050610fef565b508091505090565b600160009054906101000a900473ffffffffffffffffffffffffffffffffffffffff1681565b60008060008673ffffffffffffffffffffffffffffffffffffffff166323b872dd3330886040518463ffffffff1660e01b81526004016111359392919061218e565b602060405180830381600087803b15801561114f57600080fd5b505af1158015611163573d6000803e3d6000fd5b505050506040513d601f19601f820116820180604052508101906111879190611daa565b508573ffffffffffffffffffffffffffffffffffffffff166323b872dd3330876040518463ffffffff1660e01b81526004016111c59392919061218e565b602060405180830381600087803b1580156111df57600080fd5b505af11580156111f3573d6000803e3d6000fd5b505050506040513d601f19601f820116820180604052508101906112179190611daa565b508673ffffffffffffffffffffffffffffffffffffffff1663095ea7b360008054906101000a900473ffffffffffffffffffffffffffffffffffffffff16876040518363ffffffff1660e01b8152600401611273929190612304565b602060405180830381600087803b15801561128d57600080fd5b505af11580156112a1573d6000803e3d6000fd5b505050506040513d601f19601f820116820180604052508101906112c59190611daa565b508573ffffffffffffffffffffffffffffffffffffffff1663095ea7b360008054906101000a900473ffffffffffffffffffffffffffffffffffffffff16866040518363ffffffff1660e01b8152600401611321929190612304565b602060405180830381600087803b15801561133b57600080fd5b505af115801561134f573d6000803e3d6000fd5b505050506040513d601f19601f820116820180604052508101906113739190611daa565b5060008060008060009054906101000a900473ffffffffffffffffffffffffffffffffffffffff1673ffffffffffffffffffffffffffffffffffffffff1663e8e337008b8b8b8b60018030426040518963ffffffff1660e01b81526004016113e2989796959493929190612286565b606060405180830381600087803b1580156113fc57600080fd5b505af1158015611410573d6000803e3d6000fd5b505050506040513d601f19601f820116820180604052508101906114349190611f02565b9250925092508282829550955095505050509450945094915050565b8473ffffffffffffffffffffffffffffffffffffffff166323b872dd3330866040518463ffffffff1660e01b815260040161148d9392919061218e565b602060405180830381600087803b1580156114a757600080fd5b505af11580156114bb573d6000803e3d6000fd5b505050506040513d601f19601f820116820180604052508101906114df9190611daa565b508473ffffffffffffffffffffffffffffffffffffffff1663095ea7b360008054906101000a900473ffffffffffffffffffffffffffffffffffffffff16856040518363ffffffff1660e01b815260040161153b929190612304565b602060405180830381600087803b15801561155557600080fd5b505af1158015611569573d6000803e3d6000fd5b505050506040513d601f19601f8201168201806040525081019061158d9190611daa565b50606060008054906101000a900473ffffffffffffffffffffffffffffffffffffffff1673ffffffffffffffffffffffffffffffffffffffff1663ad5c46486040518163ffffffff1660e01b815260040160206040518083038186803b1580156115f657600080fd5b505afa15801561160a573d6000803e3d6000fd5b505050506040513d601f19601f8201168201806040525081019061162e9190611bdb565b73ffffffffffffffffffffffffffffffffffffffff168673ffffffffffffffffffffffffffffffffffffffff16148061172f575060008054906101000a900473ffffffffffffffffffffffffffffffffffffffff1673ffffffffffffffffffffffffffffffffffffffff1663ad5c46486040518163ffffffff1660e01b815260040160206040518083038186803b1580156116c857600080fd5b505afa1580156116dc573d6000803e3d6000fd5b505050506040513d601f19601f820116820180604052508101906117009190611bdb565b73ffffffffffffffffffffffffffffffffffffffff168573ffffffffffffffffffffffffffffffffffffffff16145b1561181357600267ffffffffffffffff8111801561174c57600080fd5b5060405190808252806020026020018201604052801561177b5781602001602082028036833780820191505090505b509050858160008151811061178c57fe5b602002602001019073ffffffffffffffffffffffffffffffffffffffff16908173ffffffffffffffffffffffffffffffffffffffff168152505084816001815181106117d457fe5b602002602001019073ffffffffffffffffffffffffffffffffffffffff16908173ffffffffffffffffffffffffffffffffffffffff16815250506119d3565b600367ffffffffffffffff8111801561182b57600080fd5b5060405190808252806020026020018201604052801561185a5781602001602082028036833780820191505090505b509050858160008151811061186b57fe5b602002602001019073ffffffffffffffffffffffffffffffffffffffff16908173ffffffffffffffffffffffffffffffffffffffff168152505060008054906101000a900473ffffffffffffffffffffffffffffffffffffffff1673ffffffffffffffffffffffffffffffffffffffff1663ad5c46486040518163ffffffff1660e01b815260040160206040518083038186803b15801561190b57600080fd5b505afa15801561191f573d6000803e3d6000fd5b505050506040513d601f19601f820116820180604052508101906119439190611bdb565b8160018151811061195057fe5b602002602001019073ffffffffffffffffffffffffffffffffffffffff16908173ffffffffffffffffffffffffffffffffffffffff1681525050848160028151811061199857fe5b602002602001019073ffffffffffffffffffffffffffffffffffffffff16908173ffffffffffffffffffffffffffffffffffffffff16815250505b60008054906101000a900473ffffffffffffffffffffffffffffffffffffffff1673ffffffffffffffffffffffffffffffffffffffff166338ed173985858486426040518663ffffffff1660e01b8152600401611a3495949392919061247d565b600060405180830381600087803b158015611a4e57600080fd5b505af1158015611a62573d6000803e3d6000fd5b505050506040513d6000823e3d601f19601f82011682018060405250810190611a8b9190611d69565b50505050505050565b604051806040016040528060008019168152602001600073ffffffffffffffffffffffffffffffffffffffff1681525090565b6000611ada611ad58461253f565b61250e565b90508083825260208201905082856020860282011115611af957600080fd5b60005b85811015611b295781611b0f8882611bc6565b845260208401935060208301925050600181019050611afc565b5050509392505050565b600081359050611b42816126d2565b92915050565b600081519050611b57816126d2565b92915050565b600082601f830112611b6e57600080fd5b8151611b7e848260208601611ac7565b91505092915050565b600081519050611b96816126e9565b92915050565b600081359050611bab81612700565b92915050565b600081359050611bc081612717565b92915050565b600081519050611bd581612717565b92915050565b600060208284031215611bed57600080fd5b6000611bfb84828501611b48565b91505092915050565b60008060408385031215611c1757600080fd5b6000611c2585828601611b33565b9250506020611c3685828601611b33565b9150509250929050565b600080600060608486031215611c5557600080fd5b6000611c6386828701611b33565b9350506020611c7486828701611b33565b9250506040611c8586828701611bb1565b9150509250925092565b60008060008060808587031215611ca557600080fd5b6000611cb387828801611b33565b9450506020611cc487828801611b33565b9350506040611cd587828801611bb1565b9250506060611ce687828801611bb1565b91505092959194509250565b600080600080600060a08688031215611d0a57600080fd5b6000611d1888828901611b33565b9550506020611d2988828901611b33565b9450506040611d3a88828901611bb1565b9350506060611d4b88828901611bb1565b9250506080611d5c88828901611b33565b9150509295509295909350565b600060208284031215611d7b57600080fd5b600082015167ffffffffffffffff811115611d9557600080fd5b611da184828501611b5d565b91505092915050565b600060208284031215611dbc57600080fd5b6000611dca84828501611b87565b91505092915050565b600060208284031215611de557600080fd5b6000611df384828501611b9c565b91505092915050565b60008060408385031215611e0f57600080fd5b6000611e1d85828601611b9c565b9250506020611e2e85828601611b33565b9150509250929050565b60008060408385031215611e4b57600080fd5b6000611e5985828601611b9c565b9250506020611e6a85828601611bb1565b9150509250929050565b600060208284031215611e8657600080fd5b6000611e9484828501611bb1565b91505092915050565b600060208284031215611eaf57600080fd5b6000611ebd84828501611bc6565b91505092915050565b60008060408385031215611ed957600080fd5b6000611ee785828601611bc6565b9250506020611ef885828601611bc6565b9150509250929050565b600080600060608486031215611f1757600080fd5b6000611f2586828701611bc6565b9350506020611f3686828701611bc6565b9250506040611f4786828701611bc6565b9150509250925092565b6000611f5d8383611f90565b60208301905092915050565b6000611f758383612135565b60408301905092915050565b611f8a81612640565b82525050565b611f99816125ee565b82525050565b611fa8816125ee565b82525050565b6000611fb98261258b565b611fc381856125bb565b9350611fce8361256b565b8060005b83811015611fff578151611fe68882611f51565b9750611ff1836125a1565b925050600181019050611fd2565b5085935050505092915050565b600061201782612596565b61202181856125cc565b935061202c8361257b565b8060005b8381101561205d5781516120448882611f69565b975061204f836125ae565b925050600181019050612030565b5085935050505092915050565b6120738161260c565b82525050565b6120828161260c565b82525050565b61209181612652565b82525050565b6120a081612676565b82525050565b6120af8161269a565b82525050565b60006120c26012836125dd565b91507f4e6f7420656e6f7567682062616c616e636500000000000000000000000000006000830152602082019050919050565b6000612102600a836125dd565b91507f6f6e6c79206f776e6572000000000000000000000000000000000000000000006000830152602082019050919050565b60408201600082015161214b600085018261206a565b50602082015161215e6020850182611f90565b50505050565b61216d81612636565b82525050565b60006020820190506121886000830184611f9f565b92915050565b60006060820190506121a36000830186611f81565b6121b06020830185611f9f565b6121bd6040830184612164565b949350505050565b60006040820190506121da6000830185611f81565b6121e76020830184612164565b9392505050565b60006040820190506122036000830185611f9f565b6122106020830184611f9f565b9392505050565b600060e08201905061222c600083018a611f9f565b6122396020830189611f9f565b6122466040830188612164565b61225360608301876120a6565b61226060808301866120a6565b61226d60a0830185611f9f565b61227a60c0830184612164565b98975050505050505050565b60006101008201905061229c600083018b611f9f565b6122a9602083018a611f9f565b6122b66040830189612164565b6122c36060830188612164565b6122d060808301876120a6565b6122dd60a08301866120a6565b6122ea60c0830185611f9f565b6122f760e0830184612164565b9998505050505050505050565b60006040820190506123196000830185611f9f565b6123266020830184612164565b9392505050565b60006020820190508181036000830152612347818461200c565b905092915050565b60006020820190506123646000830184612079565b92915050565b600060408201905061237f6000830185612079565b61238c6020830184611f9f565b9392505050565b60006020820190506123a86000830184612088565b92915050565b60006020820190506123c36000830184612097565b92915050565b600060208201905081810360008301526123e2816120b5565b9050919050565b60006020820190508181036000830152612402816120f5565b9050919050565b600060208201905061241e6000830184612164565b92915050565b60006040820190506124396000830185612164565b818103602083015261244b8184611fae565b90509392505050565b60006040820190506124696000830185612164565b6124766020830184612164565b9392505050565b600060a0820190506124926000830188612164565b61249f6020830187612164565b81810360408301526124b18186611fae565b90506124c06060830185611f9f565b6124cd6080830184612164565b9695505050505050565b60006060820190506124ec6000830186612164565b6124f96020830185612164565b6125066040830184612164565b949350505050565b6000604051905081810181811067ffffffffffffffff82111715612535576125346126d0565b5b8060405250919050565b600067ffffffffffffffff82111561255a576125596126d0565b5b602082029050602081019050919050565b6000819050602082019050919050565b6000819050602082019050919050565b600081519050919050565b600081519050919050565b6000602082019050919050565b6000602082019050919050565b600082825260208201905092915050565b600082825260208201905092915050565b600082825260208201905092915050565b60006125f982612616565b9050919050565b60008115159050919050565b6000819050919050565b600073ffffffffffffffffffffffffffffffffffffffff82169050919050565b6000819050919050565b600061264b826126ac565b9050919050565b600061265d82612664565b9050919050565b600061266f82612616565b9050919050565b600061268182612688565b9050919050565b600061269382612616565b9050919050565b60006126a582612636565b9050919050565b60006126b7826126be565b9050919050565b60006126c982612616565b9050919050565bfe5b6126db816125ee565b81146126e657600080fd5b50565b6126f281612600565b81146126fd57600080fd5b50565b6127098161260c565b811461271457600080fd5b50565b61272081612636565b811461272b57600080fd5b5056fea26469706673582212209e31791e480836542a4e0ba3087d65e67e0755b655cf4b0fc2f683f68f7bb19b64736f6c63430007060033",
  "immutableReferences": {},
  "source": "// SPDX-License-Identifier: MIT\npragma solidity ^0.7.3;\npragma experimental ABIEncoderV2;\n\nimport \"@openzeppelin/contracts/token/ERC20/IERC20.sol\";\nimport \"./IUniswap.sol\";\n\ncontract UniswapIntegration {\n    struct Token {\n        bytes32 ticker;\n        address tokenAddress;\n    }\n\n    IUniswapV2Router public uniswap;\n    IUniswapV2Factory public factory;\n\n    address public owner;\n\n    mapping(bytes32 => Token) public tokens;\n    bytes32[] public tokenList;\n\n    constructor(address _uniswap) {\n        uniswap = IUniswapV2Router(_uniswap);\n        factory = IUniswapV2Factory(uniswap.factory());\n        owner = msg.sender;\n    }\n\n    modifier onlyOwner() {\n        require(msg.sender == owner, \"only owner\");\n        _;\n    }\n\n    function addToken(bytes32 ticker, address tokenAddress)\n        external\n        onlyOwner()\n    {\n        tokens[ticker] = Token(ticker, tokenAddress);\n        tokenList.push(ticker);\n    }\n\n    function getTokens() external view returns (Token[] memory) {\n        Token[] memory _tokens = new Token[](tokenList.length);\n        for (uint256 i = 0; i < tokenList.length; i++) {\n            _tokens[i] = Token(\n                tokens[tokenList[i]].ticker,\n                tokens[tokenList[i]].tokenAddress\n            );\n        }\n        return _tokens;\n    }\n\n    function deposit(bytes32 ticker, uint256 amount) external {\n        IERC20 tokenInstance = IERC20(tokens[ticker].tokenAddress);\n        tokenInstance.transferFrom(msg.sender, address(this), amount);\n    }\n\n    function withdraw(bytes32 ticker, uint256 amount) external onlyOwner() {\n        IERC20 tokenInstance = IERC20(tokens[ticker].tokenAddress);\n        uint256 balance = tokenInstance.balanceOf(address(this));\n\n        require(balance >= amount, \"Not enough balance\");\n\n        tokenInstance.transfer(msg.sender, amount);\n    }\n\n    function swap(\n        address _tokenIn,\n        address _tokenOut,\n        uint256 _amountIn,\n        uint256 _amountOut,\n        address _to\n    ) external {\n        IERC20(_tokenIn).transferFrom(msg.sender, address(this), _amountIn);\n        IERC20(_tokenIn).approve(address(uniswap), _amountIn);\n\n        address[] memory path;\n        if (_tokenIn == uniswap.WETH() || _tokenOut == uniswap.WETH()) {\n            path = new address[](2);\n            path[0] = _tokenIn;\n            path[1] = _tokenOut;\n        } else {\n            path = new address[](3);\n            path[0] = _tokenIn;\n            path[1] = uniswap.WETH();\n            path[2] = _tokenOut;\n        }\n\n        uniswap.swapExactTokensForTokens(\n            _amountIn,\n            _amountOut,\n            path,\n            _to,\n            block.timestamp\n        );\n    }\n\n    function getAmountOutMin(\n        address _tokenIn,\n        address _tokenOut,\n        uint256 _amountIn\n    ) external view returns (uint256) {\n        address[] memory path;\n\n        if (_tokenIn == uniswap.WETH() || _tokenOut == uniswap.WETH()) {\n            path = new address[](2);\n            path[0] = _tokenIn;\n            path[1] = _tokenOut;\n        } else {\n            path = new address[](3);\n            path[0] = _tokenIn;\n            path[1] = uniswap.WETH();\n            path[2] = _tokenOut;\n        }\n\n        uint256[] memory amountOutMins = uniswap.getAmountsOut(_amountIn, path);\n\n        return amountOutMins[path.length - 1];\n    }\n\n    function addLiquidity(\n        address _tokenA,\n        address _tokenB,\n        uint256 _amountA,\n        uint256 _amountB\n    )\n        external\n        returns (\n            uint256,\n            uint256,\n            uint256\n        )\n    {\n        IERC20(_tokenA).transferFrom(msg.sender, address(this), _amountA);\n        IERC20(_tokenB).transferFrom(msg.sender, address(this), _amountB);\n\n        IERC20(_tokenA).approve(address(uniswap), _amountA);\n        IERC20(_tokenB).approve(address(uniswap), _amountB);\n\n        (uint256 amountA, uint256 amountB, uint256 liquidityAmount) =\n            uniswap.addLiquidity(\n                _tokenA,\n                _tokenB,\n                _amountA,\n                _amountB,\n                1,\n                1,\n                address(this),\n                block.timestamp\n            );\n\n        return (amountA, amountB, liquidityAmount);\n    }\n\n    function removeLiquidity(address _tokenA, address _tokenB)\n        external\n        returns (uint256, uint256)\n    {\n        address pair = factory.getPair(_tokenA, _tokenB);\n\n        uint256 liquidityAmount = IERC20(pair).balanceOf(address(this));\n        IERC20(pair).approve(address(uniswap), liquidityAmount);\n\n        (uint256 amountA, uint256 amountB) =\n            uniswap.removeLiquidity(\n                _tokenA,\n                _tokenB,\n                liquidityAmount,\n                1,\n                1,\n                address(this),\n                block.timestamp\n            );\n\n        return (amountA, amountB);\n    }\n}\n",
  "sourcePath": "/Users/ryan/Desktop/Projects/uni/contracts/UniswapIntegration.sol",
  "compiler": {
    "name": "solc",
    "version": "0.7.6+commit.7338295f.Emscripten.clang"
  },
  "schemaVersion": "3.3.4",
  "updatedAt": "2021-04-18T14:26:33.525Z",
  "networkType": "ethereum",
  "devdoc": {
    "kind": "dev",
    "methods": {},
    "version": 1
  },
  "userdoc": {
    "kind": "user",
    "methods": {},
    "version": 1
  }
}