{
  "contractName": "UniswapIntegration",
  "abi": [
    {
      "inputs": [
        {
          "internalType": "address",
          "name": "_uniswap",
          "type": "address"
        }
      ],
      "stateMutability": "nonpayable",
      "type": "constructor"
    },
    {
      "anonymous": false,
      "inputs": [
        {
          "indexed": false,
          "internalType": "address",
          "name": "tokenA",
          "type": "address"
        },
        {
          "indexed": false,
          "internalType": "address",
          "name": "tokenB",
          "type": "address"
        },
        {
          "indexed": false,
          "internalType": "address",
          "name": "provider",
          "type": "address"
        },
        {
          "indexed": true,
          "internalType": "uint256",
          "name": "amountA",
          "type": "uint256"
        },
        {
          "indexed": true,
          "internalType": "uint256",
          "name": "amountB",
          "type": "uint256"
        },
        {
          "indexed": true,
          "internalType": "uint256",
          "name": "liquidityAmount",
          "type": "uint256"
        }
      ],
      "name": "AddedLiquidity",
      "type": "event"
    },
    {
      "anonymous": false,
      "inputs": [
        {
          "indexed": true,
          "internalType": "address",
          "name": "tokenIn",
          "type": "address"
        },
        {
          "indexed": true,
          "internalType": "address",
          "name": "tokenOut",
          "type": "address"
        },
        {
          "indexed": true,
          "internalType": "address",
          "name": "trader",
          "type": "address"
        },
        {
          "indexed": false,
          "internalType": "uint256",
          "name": "amountIn",
          "type": "uint256"
        },
        {
          "indexed": false,
          "internalType": "uint256",
          "name": "amountOut",
          "type": "uint256"
        }
      ],
      "name": "NewSwap",
      "type": "event"
    },
    {
      "anonymous": false,
      "inputs": [
        {
          "indexed": false,
          "internalType": "address",
          "name": "tokenA",
          "type": "address"
        },
        {
          "indexed": false,
          "internalType": "address",
          "name": "tokenB",
          "type": "address"
        },
        {
          "indexed": false,
          "internalType": "address",
          "name": "provider",
          "type": "address"
        },
        {
          "indexed": true,
          "internalType": "uint256",
          "name": "amountA",
          "type": "uint256"
        },
        {
          "indexed": true,
          "internalType": "uint256",
          "name": "amountB",
          "type": "uint256"
        },
        {
          "indexed": true,
          "internalType": "uint256",
          "name": "liquidityAmount",
          "type": "uint256"
        }
      ],
      "name": "RemovedLiquidity",
      "type": "event"
    },
    {
      "inputs": [],
      "name": "factory",
      "outputs": [
        {
          "internalType": "contract IUniswapV2Factory",
          "name": "",
          "type": "address"
        }
      ],
      "stateMutability": "view",
      "type": "function",
      "constant": true
    },
    {
      "inputs": [],
      "name": "owner",
      "outputs": [
        {
          "internalType": "address",
          "name": "",
          "type": "address"
        }
      ],
      "stateMutability": "view",
      "type": "function",
      "constant": true
    },
    {
      "inputs": [
        {
          "internalType": "uint256",
          "name": "",
          "type": "uint256"
        }
      ],
      "name": "tokenList",
      "outputs": [
        {
          "internalType": "bytes32",
          "name": "",
          "type": "bytes32"
        }
      ],
      "stateMutability": "view",
      "type": "function",
      "constant": true
    },
    {
      "inputs": [
        {
          "internalType": "bytes32",
          "name": "",
          "type": "bytes32"
        }
      ],
      "name": "tokens",
      "outputs": [
        {
          "internalType": "bytes32",
          "name": "ticker",
          "type": "bytes32"
        },
        {
          "internalType": "address",
          "name": "tokenAddress",
          "type": "address"
        }
      ],
      "stateMutability": "view",
      "type": "function",
      "constant": true
    },
    {
      "inputs": [],
      "name": "uniswap",
      "outputs": [
        {
          "internalType": "contract IUniswapV2Router",
          "name": "",
          "type": "address"
        }
      ],
      "stateMutability": "view",
      "type": "function",
      "constant": true
    },
    {
      "inputs": [
        {
          "internalType": "bytes32",
          "name": "ticker",
          "type": "bytes32"
        },
        {
          "internalType": "address",
          "name": "tokenAddress",
          "type": "address"
        }
      ],
      "name": "addToken",
      "outputs": [],
      "stateMutability": "nonpayable",
      "type": "function"
    },
    {
      "inputs": [],
      "name": "getTokens",
      "outputs": [
        {
          "components": [
            {
              "internalType": "bytes32",
              "name": "ticker",
              "type": "bytes32"
            },
            {
              "internalType": "address",
              "name": "tokenAddress",
              "type": "address"
            }
          ],
          "internalType": "struct UniswapIntegration.Token[]",
          "name": "",
          "type": "tuple[]"
        }
      ],
      "stateMutability": "view",
      "type": "function",
      "constant": true
    },
    {
      "inputs": [
        {
          "internalType": "bytes32",
          "name": "ticker",
          "type": "bytes32"
        },
        {
          "internalType": "uint256",
          "name": "amount",
          "type": "uint256"
        }
      ],
      "name": "deposit",
      "outputs": [],
      "stateMutability": "nonpayable",
      "type": "function"
    },
    {
      "inputs": [
        {
          "internalType": "bytes32",
          "name": "ticker",
          "type": "bytes32"
        },
        {
          "internalType": "uint256",
          "name": "amount",
          "type": "uint256"
        }
      ],
      "name": "withdraw",
      "outputs": [],
      "stateMutability": "nonpayable",
      "type": "function"
    },
    {
      "inputs": [
        {
          "internalType": "address",
          "name": "_tokenIn",
          "type": "address"
        },
        {
          "internalType": "address",
          "name": "_tokenOut",
          "type": "address"
        },
        {
          "internalType": "uint256",
          "name": "_amountIn",
          "type": "uint256"
        },
        {
          "internalType": "uint256",
          "name": "_amountOut",
          "type": "uint256"
        },
        {
          "internalType": "address",
          "name": "_to",
          "type": "address"
        }
      ],
      "name": "swap",
      "outputs": [],
      "stateMutability": "nonpayable",
      "type": "function"
    },
    {
      "inputs": [
        {
          "internalType": "address",
          "name": "_tokenIn",
          "type": "address"
        },
        {
          "internalType": "address",
          "name": "_tokenOut",
          "type": "address"
        },
        {
          "internalType": "uint256",
          "name": "_amountIn",
          "type": "uint256"
        }
      ],
      "name": "getAmountOutMin",
      "outputs": [
        {
          "internalType": "uint256",
          "name": "",
          "type": "uint256"
        }
      ],
      "stateMutability": "view",
      "type": "function",
      "constant": true
    },
    {
      "inputs": [
        {
          "internalType": "address",
          "name": "_tokenA",
          "type": "address"
        },
        {
          "internalType": "address",
          "name": "_tokenB",
          "type": "address"
        },
        {
          "internalType": "uint256",
          "name": "_amountA",
          "type": "uint256"
        },
        {
          "internalType": "uint256",
          "name": "_amountB",
          "type": "uint256"
        }
      ],
      "name": "addLiquidity",
      "outputs": [
        {
          "internalType": "uint256",
          "name": "",
          "type": "uint256"
        },
        {
          "internalType": "uint256",
          "name": "",
          "type": "uint256"
        },
        {
          "internalType": "uint256",
          "name": "",
          "type": "uint256"
        }
      ],
      "stateMutability": "nonpayable",
      "type": "function"
    },
    {
      "inputs": [
        {
          "internalType": "address",
          "name": "_tokenA",
          "type": "address"
        },
        {
          "internalType": "address",
          "name": "_tokenB",
          "type": "address"
        }
      ],
      "name": "removeLiquidity",
      "outputs": [
        {
          "internalType": "uint256",
          "name": "",
          "type": "uint256"
        },
        {
          "internalType": "uint256",
          "name": "",
          "type": "uint256"
        }
      ],
      "stateMutability": "nonpayable",
      "type": "function"
    }
  ],
  "bytecode": "0x60806040523480156200001157600080fd5b5060405162002ad738038062002ad78339818101604052810190620000379190620001b8565b806000806101000a81548173ffffffffffffffffffffffffffffffffffffffff021916908373ffffffffffffffffffffffffffffffffffffffff16021790555060008054906101000a900473ffffffffffffffffffffffffffffffffffffffff1673ffffffffffffffffffffffffffffffffffffffff1663c45a01556040518163ffffffff1660e01b815260040160206040518083038186803b158015620000de57600080fd5b505afa158015620000f3573d6000803e3d6000fd5b505050506040513d601f19601f82011682018060405250810190620001199190620001b8565b600160006101000a81548173ffffffffffffffffffffffffffffffffffffffff021916908373ffffffffffffffffffffffffffffffffffffffff16021790555033600260006101000a81548173ffffffffffffffffffffffffffffffffffffffff021916908373ffffffffffffffffffffffffffffffffffffffff1602179055505062000232565b600081519050620001b28162000218565b92915050565b600060208284031215620001cb57600080fd5b6000620001db84828501620001a1565b91505092915050565b6000620001f182620001f8565b9050919050565b600073ffffffffffffffffffffffffffffffffffffffff82169050919050565b6200022381620001e4565b81146200022f57600080fd5b50565b61289580620002426000396000f3fe608060405234801561001057600080fd5b50600436106100cf5760003560e01c80639776aacf1161008c578063aa6ca80811610066578063aa6ca80814610226578063c45a015514610244578063cf6c62ea14610262578063d5bcb9b514610294576100cf565b80639776aacf146101a95780639cf38f7c146101c55780639ead7222146101f6576100cf565b8063040cf020146100d45780631de26e16146100f05780632681f7e41461010c5780633c50eec11461012a5780638da5cb5b1461015a578063904194a314610178575b600080fd5b6100ee60048036038101906100e99190611f32565b6102b0565b005b61010a60048036038101906101059190611f32565b6104df565b005b6101146105af565b60405161012191906124df565b60405180910390f35b610144600480360381019061013f9190611d3a565b6105d3565b604051610151919061253a565b60405180910390f35b610162610af2565b60405161016f919061226d565b60405180910390f35b610192600480360381019061018d9190611ecd565b610b18565b6040516101a092919061249b565b60405180910390f35b6101c360048036038101906101be9190611ef6565b610b5c565b005b6101df60048036038101906101da9190611cfe565b610cab565b6040516101ed929190612585565b60405180910390f35b610210600480360381019061020b9190611f6e565b610fa9565b60405161021d9190612480565b60405180910390f35b61022e610fcd565b60405161023b919061245e565b60405180910390f35b61024c61110b565b60405161025991906124c4565b60405180910390f35b61027c60048036038101906102779190611d89565b611131565b60405161028b93929190612608565b60405180910390f35b6102ae60048036038101906102a99190611dec565b6114cc565b005b600260009054906101000a900473ffffffffffffffffffffffffffffffffffffffff1673ffffffffffffffffffffffffffffffffffffffff163373ffffffffffffffffffffffffffffffffffffffff1614610340576040517f08c379a00000000000000000000000000000000000000000000000000000000081526004016103379061251a565b60405180910390fd5b60006003600084815260200190815260200160002060010160009054906101000a900473ffffffffffffffffffffffffffffffffffffffff16905060008173ffffffffffffffffffffffffffffffffffffffff166370a08231306040518263ffffffff1660e01b81526004016103b6919061226d565b60206040518083038186803b1580156103ce57600080fd5b505afa1580156103e2573d6000803e3d6000fd5b505050506040513d601f19601f820116820180604052508101906104069190611f97565b90508281101561044b576040517f08c379a0000000000000000000000000000000000000000000000000000000008152600401610442906124fa565b60405180910390fd5b8173ffffffffffffffffffffffffffffffffffffffff1663a9059cbb33856040518363ffffffff1660e01b81526004016104869291906122bf565b602060405180830381600087803b1580156104a057600080fd5b505af11580156104b4573d6000803e3d6000fd5b505050506040513d601f19601f820116820180604052508101906104d89190611ea4565b5050505050565b60006003600084815260200190815260200160002060010160009054906101000a900473ffffffffffffffffffffffffffffffffffffffff1690508073ffffffffffffffffffffffffffffffffffffffff166323b872dd3330856040518463ffffffff1660e01b815260040161055793929190612288565b602060405180830381600087803b15801561057157600080fd5b505af1158015610585573d6000803e3d6000fd5b505050506040513d601f19601f820116820180604052508101906105a99190611ea4565b50505050565b60008054906101000a900473ffffffffffffffffffffffffffffffffffffffff1681565b6000606060008054906101000a900473ffffffffffffffffffffffffffffffffffffffff1673ffffffffffffffffffffffffffffffffffffffff1663ad5c46486040518163ffffffff1660e01b815260040160206040518083038186803b15801561063d57600080fd5b505afa158015610651573d6000803e3d6000fd5b505050506040513d601f19601f820116820180604052508101906106759190611cd5565b73ffffffffffffffffffffffffffffffffffffffff168573ffffffffffffffffffffffffffffffffffffffff161480610776575060008054906101000a900473ffffffffffffffffffffffffffffffffffffffff1673ffffffffffffffffffffffffffffffffffffffff1663ad5c46486040518163ffffffff1660e01b815260040160206040518083038186803b15801561070f57600080fd5b505afa158015610723573d6000803e3d6000fd5b505050506040513d601f19601f820116820180604052508101906107479190611cd5565b73ffffffffffffffffffffffffffffffffffffffff168473ffffffffffffffffffffffffffffffffffffffff16145b1561085a57600267ffffffffffffffff8111801561079357600080fd5b506040519080825280602002602001820160405280156107c25781602001602082028036833780820191505090505b50905084816000815181106107d357fe5b602002602001019073ffffffffffffffffffffffffffffffffffffffff16908173ffffffffffffffffffffffffffffffffffffffff1681525050838160018151811061081b57fe5b602002602001019073ffffffffffffffffffffffffffffffffffffffff16908173ffffffffffffffffffffffffffffffffffffffff1681525050610a1a565b600367ffffffffffffffff8111801561087257600080fd5b506040519080825280602002602001820160405280156108a15781602001602082028036833780820191505090505b50905084816000815181106108b257fe5b602002602001019073ffffffffffffffffffffffffffffffffffffffff16908173ffffffffffffffffffffffffffffffffffffffff168152505060008054906101000a900473ffffffffffffffffffffffffffffffffffffffff1673ffffffffffffffffffffffffffffffffffffffff1663ad5c46486040518163ffffffff1660e01b815260040160206040518083038186803b15801561095257600080fd5b505afa158015610966573d6000803e3d6000fd5b505050506040513d601f19601f8201168201806040525081019061098a9190611cd5565b8160018151811061099757fe5b602002602001019073ffffffffffffffffffffffffffffffffffffffff16908173ffffffffffffffffffffffffffffffffffffffff168152505083816002815181106109df57fe5b602002602001019073ffffffffffffffffffffffffffffffffffffffff16908173ffffffffffffffffffffffffffffffffffffffff16815250505b60008060009054906101000a900473ffffffffffffffffffffffffffffffffffffffff1673ffffffffffffffffffffffffffffffffffffffff1663d06ca61f85846040518363ffffffff1660e01b8152600401610a78929190612555565b60006040518083038186803b158015610a9057600080fd5b505afa158015610aa4573d6000803e3d6000fd5b505050506040513d6000823e3d601f19601f82011682018060405250810190610acd9190611e63565b905080600183510381518110610adf57fe5b6020026020010151925050509392505050565b600260009054906101000a900473ffffffffffffffffffffffffffffffffffffffff1681565b60036020528060005260406000206000915090508060000154908060010160009054906101000a900473ffffffffffffffffffffffffffffffffffffffff16905082565b600260009054906101000a900473ffffffffffffffffffffffffffffffffffffffff1673ffffffffffffffffffffffffffffffffffffffff163373ffffffffffffffffffffffffffffffffffffffff1614610bec576040517f08c379a0000000000000000000000000000000000000000000000000000000008152600401610be39061251a565b60405180910390fd5b60405180604001604052808381526020018273ffffffffffffffffffffffffffffffffffffffff16815250600360008481526020019081526020016000206000820151816000015560208201518160010160006101000a81548173ffffffffffffffffffffffffffffffffffffffff021916908373ffffffffffffffffffffffffffffffffffffffff16021790555090505060048290806001815401808255809150506001900390600052602060002001600090919091909150555050565b6000806000600160009054906101000a900473ffffffffffffffffffffffffffffffffffffffff1673ffffffffffffffffffffffffffffffffffffffff1663e6a4390586866040518363ffffffff1660e01b8152600401610d0d9291906122e8565b602060405180830381600087803b158015610d2757600080fd5b505af1158015610d3b573d6000803e3d6000fd5b505050506040513d601f19601f82011682018060405250810190610d5f9190611cd5565b905060008173ffffffffffffffffffffffffffffffffffffffff166370a08231306040518263ffffffff1660e01b8152600401610d9c919061226d565b60206040518083038186803b158015610db457600080fd5b505afa158015610dc8573d6000803e3d6000fd5b505050506040513d601f19601f82011682018060405250810190610dec9190611f97565b90508173ffffffffffffffffffffffffffffffffffffffff1663095ea7b360008054906101000a900473ffffffffffffffffffffffffffffffffffffffff16836040518363ffffffff1660e01b8152600401610e49929190612435565b602060405180830381600087803b158015610e6357600080fd5b505af1158015610e77573d6000803e3d6000fd5b505050506040513d601f19601f82011682018060405250810190610e9b9190611ea4565b5060008060008054906101000a900473ffffffffffffffffffffffffffffffffffffffff1673ffffffffffffffffffffffffffffffffffffffff1663baa2abde89898660018030426040518863ffffffff1660e01b8152600401610f059796959493929190612348565b6040805180830381600087803b158015610f1e57600080fd5b505af1158015610f32573d6000803e3d6000fd5b505050506040513d601f19601f82011682018060405250810190610f569190611fc0565b915091508281837f429032ba83790adfa842a372bffc1d5c12b6166819d7d0c597c3cd972c6ff7868b8b33604051610f9093929190612311565b60405180910390a4818195509550505050509250929050565b60048181548110610fb957600080fd5b906000526020600020016000915090505481565b6060600060048054905067ffffffffffffffff81118015610fed57600080fd5b5060405190808252806020026020018201604052801561102757816020015b611014611b8e565b81526020019060019003908161100c5790505b50905060005b600480549050811015611103576040518060400160405280600360006004858154811061105657fe5b90600052602060002001548152602001908152602001600020600001548152602001600360006004858154811061108957fe5b9060005260206000200154815260200190815260200160002060010160009054906101000a900473ffffffffffffffffffffffffffffffffffffffff1673ffffffffffffffffffffffffffffffffffffffff168152508282815181106110eb57fe5b6020026020010181905250808060010191505061102d565b508091505090565b600160009054906101000a900473ffffffffffffffffffffffffffffffffffffffff1681565b60008060008673ffffffffffffffffffffffffffffffffffffffff166323b872dd3330886040518463ffffffff1660e01b815260040161117393929190612288565b602060405180830381600087803b15801561118d57600080fd5b505af11580156111a1573d6000803e3d6000fd5b505050506040513d601f19601f820116820180604052508101906111c59190611ea4565b508573ffffffffffffffffffffffffffffffffffffffff166323b872dd3330876040518463ffffffff1660e01b815260040161120393929190612288565b602060405180830381600087803b15801561121d57600080fd5b505af1158015611231573d6000803e3d6000fd5b505050506040513d601f19601f820116820180604052508101906112559190611ea4565b508673ffffffffffffffffffffffffffffffffffffffff1663095ea7b360008054906101000a900473ffffffffffffffffffffffffffffffffffffffff16876040518363ffffffff1660e01b81526004016112b1929190612435565b602060405180830381600087803b1580156112cb57600080fd5b505af11580156112df573d6000803e3d6000fd5b505050506040513d601f19601f820116820180604052508101906113039190611ea4565b508573ffffffffffffffffffffffffffffffffffffffff1663095ea7b360008054906101000a900473ffffffffffffffffffffffffffffffffffffffff16866040518363ffffffff1660e01b815260040161135f929190612435565b602060405180830381600087803b15801561137957600080fd5b505af115801561138d573d6000803e3d6000fd5b505050506040513d601f19601f820116820180604052508101906113b19190611ea4565b5060008060008060009054906101000a900473ffffffffffffffffffffffffffffffffffffffff1673ffffffffffffffffffffffffffffffffffffffff1663e8e337008b8b8b8b60018030426040518963ffffffff1660e01b81526004016114209897969594939291906123b7565b606060405180830381600087803b15801561143a57600080fd5b505af115801561144e573d6000803e3d6000fd5b505050506040513d601f19601f820116820180604052508101906114729190611ffc565b9250925092508082847f198cc6217fa26462c42ace9db00d50818aa6eae554fdc95857830395075c32448d8d336040516114ae93929190612311565b60405180910390a48282829550955095505050509450945094915050565b8473ffffffffffffffffffffffffffffffffffffffff166323b872dd3330866040518463ffffffff1660e01b815260040161150993929190612288565b602060405180830381600087803b15801561152357600080fd5b505af1158015611537573d6000803e3d6000fd5b505050506040513d601f19601f8201168201806040525081019061155b9190611ea4565b508473ffffffffffffffffffffffffffffffffffffffff1663095ea7b360008054906101000a900473ffffffffffffffffffffffffffffffffffffffff16856040518363ffffffff1660e01b81526004016115b7929190612435565b602060405180830381600087803b1580156115d157600080fd5b505af11580156115e5573d6000803e3d6000fd5b505050506040513d601f19601f820116820180604052508101906116099190611ea4565b50606060008054906101000a900473ffffffffffffffffffffffffffffffffffffffff1673ffffffffffffffffffffffffffffffffffffffff1663ad5c46486040518163ffffffff1660e01b815260040160206040518083038186803b15801561167257600080fd5b505afa158015611686573d6000803e3d6000fd5b505050506040513d601f19601f820116820180604052508101906116aa9190611cd5565b73ffffffffffffffffffffffffffffffffffffffff168673ffffffffffffffffffffffffffffffffffffffff1614806117ab575060008054906101000a900473ffffffffffffffffffffffffffffffffffffffff1673ffffffffffffffffffffffffffffffffffffffff1663ad5c46486040518163ffffffff1660e01b815260040160206040518083038186803b15801561174457600080fd5b505afa158015611758573d6000803e3d6000fd5b505050506040513d601f19601f8201168201806040525081019061177c9190611cd5565b73ffffffffffffffffffffffffffffffffffffffff168573ffffffffffffffffffffffffffffffffffffffff16145b1561188f57600267ffffffffffffffff811180156117c857600080fd5b506040519080825280602002602001820160405280156117f75781602001602082028036833780820191505090505b509050858160008151811061180857fe5b602002602001019073ffffffffffffffffffffffffffffffffffffffff16908173ffffffffffffffffffffffffffffffffffffffff1681525050848160018151811061185057fe5b602002602001019073ffffffffffffffffffffffffffffffffffffffff16908173ffffffffffffffffffffffffffffffffffffffff1681525050611a4f565b600367ffffffffffffffff811180156118a757600080fd5b506040519080825280602002602001820160405280156118d65781602001602082028036833780820191505090505b50905085816000815181106118e757fe5b602002602001019073ffffffffffffffffffffffffffffffffffffffff16908173ffffffffffffffffffffffffffffffffffffffff168152505060008054906101000a900473ffffffffffffffffffffffffffffffffffffffff1673ffffffffffffffffffffffffffffffffffffffff1663ad5c46486040518163ffffffff1660e01b815260040160206040518083038186803b15801561198757600080fd5b505afa15801561199b573d6000803e3d6000fd5b505050506040513d601f19601f820116820180604052508101906119bf9190611cd5565b816001815181106119cc57fe5b602002602001019073ffffffffffffffffffffffffffffffffffffffff16908173ffffffffffffffffffffffffffffffffffffffff16815250508481600281518110611a1457fe5b602002602001019073ffffffffffffffffffffffffffffffffffffffff16908173ffffffffffffffffffffffffffffffffffffffff16815250505b60008054906101000a900473ffffffffffffffffffffffffffffffffffffffff1673ffffffffffffffffffffffffffffffffffffffff166338ed173985858486426040518663ffffffff1660e01b8152600401611ab09594939291906125ae565b600060405180830381600087803b158015611aca57600080fd5b505af1158015611ade573d6000803e3d6000fd5b505050506040513d6000823e3d601f19601f82011682018060405250810190611b079190611e63565b503373ffffffffffffffffffffffffffffffffffffffff168573ffffffffffffffffffffffffffffffffffffffff168773ffffffffffffffffffffffffffffffffffffffff167f5d3444bfaa1b88d0ba45f8c0d9479e2846405822e46eb5ae22f584cac2cc080f8787604051611b7e929190612585565b60405180910390a4505050505050565b604051806040016040528060008019168152602001600073ffffffffffffffffffffffffffffffffffffffff1681525090565b6000611bd4611bcf84612670565b61263f565b90508083825260208201905082856020860282011115611bf357600080fd5b60005b85811015611c235781611c098882611cc0565b845260208401935060208301925050600181019050611bf6565b5050509392505050565b600081359050611c3c81612803565b92915050565b600081519050611c5181612803565b92915050565b600082601f830112611c6857600080fd5b8151611c78848260208601611bc1565b91505092915050565b600081519050611c908161281a565b92915050565b600081359050611ca581612831565b92915050565b600081359050611cba81612848565b92915050565b600081519050611ccf81612848565b92915050565b600060208284031215611ce757600080fd5b6000611cf584828501611c42565b91505092915050565b60008060408385031215611d1157600080fd5b6000611d1f85828601611c2d565b9250506020611d3085828601611c2d565b9150509250929050565b600080600060608486031215611d4f57600080fd5b6000611d5d86828701611c2d565b9350506020611d6e86828701611c2d565b9250506040611d7f86828701611cab565b9150509250925092565b60008060008060808587031215611d9f57600080fd5b6000611dad87828801611c2d565b9450506020611dbe87828801611c2d565b9350506040611dcf87828801611cab565b9250506060611de087828801611cab565b91505092959194509250565b600080600080600060a08688031215611e0457600080fd5b6000611e1288828901611c2d565b9550506020611e2388828901611c2d565b9450506040611e3488828901611cab565b9350506060611e4588828901611cab565b9250506080611e5688828901611c2d565b9150509295509295909350565b600060208284031215611e7557600080fd5b600082015167ffffffffffffffff811115611e8f57600080fd5b611e9b84828501611c57565b91505092915050565b600060208284031215611eb657600080fd5b6000611ec484828501611c81565b91505092915050565b600060208284031215611edf57600080fd5b6000611eed84828501611c96565b91505092915050565b60008060408385031215611f0957600080fd5b6000611f1785828601611c96565b9250506020611f2885828601611c2d565b9150509250929050565b60008060408385031215611f4557600080fd5b6000611f5385828601611c96565b9250506020611f6485828601611cab565b9150509250929050565b600060208284031215611f8057600080fd5b6000611f8e84828501611cab565b91505092915050565b600060208284031215611fa957600080fd5b6000611fb784828501611cc0565b91505092915050565b60008060408385031215611fd357600080fd5b6000611fe185828601611cc0565b9250506020611ff285828601611cc0565b9150509250929050565b60008060006060848603121561201157600080fd5b600061201f86828701611cc0565b935050602061203086828701611cc0565b925050604061204186828701611cc0565b9150509250925092565b6000612057838361208a565b60208301905092915050565b600061206f838361222f565b60408301905092915050565b61208481612771565b82525050565b6120938161271f565b82525050565b6120a28161271f565b82525050565b60006120b3826126bc565b6120bd81856126ec565b93506120c88361269c565b8060005b838110156120f95781516120e0888261204b565b97506120eb836126d2565b9250506001810190506120cc565b5085935050505092915050565b6000612111826126c7565b61211b81856126fd565b9350612126836126ac565b8060005b8381101561215757815161213e8882612063565b9750612149836126df565b92505060018101905061212a565b5085935050505092915050565b61216d8161273d565b82525050565b61217c8161273d565b82525050565b61218b81612783565b82525050565b61219a816127a7565b82525050565b6121a9816127cb565b82525050565b60006121bc60128361270e565b91507f4e6f7420656e6f7567682062616c616e636500000000000000000000000000006000830152602082019050919050565b60006121fc600a8361270e565b91507f6f6e6c79206f776e6572000000000000000000000000000000000000000000006000830152602082019050919050565b6040820160008201516122456000850182612164565b506020820151612258602085018261208a565b50505050565b61226781612767565b82525050565b60006020820190506122826000830184612099565b92915050565b600060608201905061229d600083018661207b565b6122aa6020830185612099565b6122b7604083018461225e565b949350505050565b60006040820190506122d4600083018561207b565b6122e1602083018461225e565b9392505050565b60006040820190506122fd6000830185612099565b61230a6020830184612099565b9392505050565b60006060820190506123266000830186612099565b6123336020830185612099565b612340604083018461207b565b949350505050565b600060e08201905061235d600083018a612099565b61236a6020830189612099565b612377604083018861225e565b61238460608301876121a0565b61239160808301866121a0565b61239e60a0830185612099565b6123ab60c083018461225e565b98975050505050505050565b6000610100820190506123cd600083018b612099565b6123da602083018a612099565b6123e7604083018961225e565b6123f4606083018861225e565b61240160808301876121a0565b61240e60a08301866121a0565b61241b60c0830185612099565b61242860e083018461225e565b9998505050505050505050565b600060408201905061244a6000830185612099565b612457602083018461225e565b9392505050565b600060208201905081810360008301526124788184612106565b905092915050565b60006020820190506124956000830184612173565b92915050565b60006040820190506124b06000830185612173565b6124bd6020830184612099565b9392505050565b60006020820190506124d96000830184612182565b92915050565b60006020820190506124f46000830184612191565b92915050565b60006020820190508181036000830152612513816121af565b9050919050565b60006020820190508181036000830152612533816121ef565b9050919050565b600060208201905061254f600083018461225e565b92915050565b600060408201905061256a600083018561225e565b818103602083015261257c81846120a8565b90509392505050565b600060408201905061259a600083018561225e565b6125a7602083018461225e565b9392505050565b600060a0820190506125c3600083018861225e565b6125d0602083018761225e565b81810360408301526125e281866120a8565b90506125f16060830185612099565b6125fe608083018461225e565b9695505050505050565b600060608201905061261d600083018661225e565b61262a602083018561225e565b612637604083018461225e565b949350505050565b6000604051905081810181811067ffffffffffffffff8211171561266657612665612801565b5b8060405250919050565b600067ffffffffffffffff82111561268b5761268a612801565b5b602082029050602081019050919050565b6000819050602082019050919050565b6000819050602082019050919050565b600081519050919050565b600081519050919050565b6000602082019050919050565b6000602082019050919050565b600082825260208201905092915050565b600082825260208201905092915050565b600082825260208201905092915050565b600061272a82612747565b9050919050565b60008115159050919050565b6000819050919050565b600073ffffffffffffffffffffffffffffffffffffffff82169050919050565b6000819050919050565b600061277c826127dd565b9050919050565b600061278e82612795565b9050919050565b60006127a082612747565b9050919050565b60006127b2826127b9565b9050919050565b60006127c482612747565b9050919050565b60006127d682612767565b9050919050565b60006127e8826127ef565b9050919050565b60006127fa82612747565b9050919050565bfe5b61280c8161271f565b811461281757600080fd5b50565b61282381612731565b811461282e57600080fd5b50565b61283a8161273d565b811461284557600080fd5b50565b61285181612767565b811461285c57600080fd5b5056fea2646970667358221220f0ba97eda8d3403ed3d3121fc8996ba8b979026b4408d420b1cac6d5b8946dca64736f6c63430007060033",
  "immutableReferences": {},
  "source": "// SPDX-License-Identifier: MIT\npragma solidity ^0.7.3;\npragma experimental ABIEncoderV2;\n\nimport \"@openzeppelin/contracts/token/ERC20/IERC20.sol\";\nimport \"./IUniswap.sol\";\n\ncontract UniswapIntegration {\n    struct Token {\n        bytes32 ticker;\n        address tokenAddress;\n    }\n\n    IUniswapV2Router public uniswap;\n    IUniswapV2Factory public factory;\n\n    address public owner;\n\n    mapping(bytes32 => Token) public tokens;\n    bytes32[] public tokenList;\n\n    event NewSwap(\n        address indexed tokenIn,\n        address indexed tokenOut,\n        address indexed trader,\n        uint256 amountIn,\n        uint256 amountOut\n    );\n\n    event AddedLiquidity(\n        address tokenA,\n        address tokenB,\n        address provider,\n        uint256 indexed amountA,\n        uint256 indexed amountB,\n        uint256 indexed liquidityAmount\n    );\n\n    event RemovedLiquidity(\n        address tokenA,\n        address tokenB,\n        address provider,\n        uint256 indexed amountA,\n        uint256 indexed amountB,\n        uint256 indexed liquidityAmount\n    );\n\n    constructor(address _uniswap) {\n        uniswap = IUniswapV2Router(_uniswap);\n        factory = IUniswapV2Factory(uniswap.factory());\n        owner = msg.sender;\n    }\n\n    modifier onlyOwner() {\n        require(msg.sender == owner, \"only owner\");\n        _;\n    }\n\n    function addToken(bytes32 ticker, address tokenAddress)\n        external\n        onlyOwner()\n    {\n        tokens[ticker] = Token(ticker, tokenAddress);\n        tokenList.push(ticker);\n    }\n\n    function getTokens() external view returns (Token[] memory) {\n        Token[] memory _tokens = new Token[](tokenList.length);\n        for (uint256 i = 0; i < tokenList.length; i++) {\n            _tokens[i] = Token(\n                tokens[tokenList[i]].ticker,\n                tokens[tokenList[i]].tokenAddress\n            );\n        }\n        return _tokens;\n    }\n\n    function deposit(bytes32 ticker, uint256 amount) external {\n        IERC20 tokenInstance = IERC20(tokens[ticker].tokenAddress);\n        tokenInstance.transferFrom(msg.sender, address(this), amount);\n    }\n\n    function withdraw(bytes32 ticker, uint256 amount) external onlyOwner() {\n        IERC20 tokenInstance = IERC20(tokens[ticker].tokenAddress);\n        uint256 balance = tokenInstance.balanceOf(address(this));\n\n        require(balance >= amount, \"Not enough balance\");\n\n        tokenInstance.transfer(msg.sender, amount);\n    }\n\n    function swap(\n        address _tokenIn,\n        address _tokenOut,\n        uint256 _amountIn,\n        uint256 _amountOut,\n        address _to\n    ) external {\n        IERC20(_tokenIn).transferFrom(msg.sender, address(this), _amountIn);\n        IERC20(_tokenIn).approve(address(uniswap), _amountIn);\n\n        address[] memory path;\n        if (_tokenIn == uniswap.WETH() || _tokenOut == uniswap.WETH()) {\n            path = new address[](2);\n            path[0] = _tokenIn;\n            path[1] = _tokenOut;\n        } else {\n            path = new address[](3);\n            path[0] = _tokenIn;\n            path[1] = uniswap.WETH();\n            path[2] = _tokenOut;\n        }\n\n        uniswap.swapExactTokensForTokens(\n            _amountIn,\n            _amountOut,\n            path,\n            _to,\n            block.timestamp\n        );\n\n        emit NewSwap(_tokenIn, _tokenOut, msg.sender, _amountIn, _amountOut);\n    }\n\n    function getAmountOutMin(\n        address _tokenIn,\n        address _tokenOut,\n        uint256 _amountIn\n    ) external view returns (uint256) {\n        address[] memory path;\n\n        if (_tokenIn == uniswap.WETH() || _tokenOut == uniswap.WETH()) {\n            path = new address[](2);\n            path[0] = _tokenIn;\n            path[1] = _tokenOut;\n        } else {\n            path = new address[](3);\n            path[0] = _tokenIn;\n            path[1] = uniswap.WETH();\n            path[2] = _tokenOut;\n        }\n\n        uint256[] memory amountOutMins = uniswap.getAmountsOut(_amountIn, path);\n\n        return amountOutMins[path.length - 1];\n    }\n\n    function addLiquidity(\n        address _tokenA,\n        address _tokenB,\n        uint256 _amountA,\n        uint256 _amountB\n    )\n        external\n        returns (\n            uint256,\n            uint256,\n            uint256\n        )\n    {\n        IERC20(_tokenA).transferFrom(msg.sender, address(this), _amountA);\n        IERC20(_tokenB).transferFrom(msg.sender, address(this), _amountB);\n\n        IERC20(_tokenA).approve(address(uniswap), _amountA);\n        IERC20(_tokenB).approve(address(uniswap), _amountB);\n\n        (uint256 amountA, uint256 amountB, uint256 liquidityAmount) =\n            uniswap.addLiquidity(\n                _tokenA,\n                _tokenB,\n                _amountA,\n                _amountB,\n                1,\n                1,\n                address(this),\n                block.timestamp\n            );\n\n        emit AddedLiquidity(\n            _tokenA,\n            _tokenB,\n            msg.sender,\n            amountA,\n            amountB,\n            liquidityAmount\n        );\n\n        return (amountA, amountB, liquidityAmount);\n    }\n\n    function removeLiquidity(address _tokenA, address _tokenB)\n        external\n        returns (uint256, uint256)\n    {\n        address pair = factory.getPair(_tokenA, _tokenB);\n\n        uint256 liquidityAmount = IERC20(pair).balanceOf(address(this));\n        IERC20(pair).approve(address(uniswap), liquidityAmount);\n\n        (uint256 amountA, uint256 amountB) =\n            uniswap.removeLiquidity(\n                _tokenA,\n                _tokenB,\n                liquidityAmount,\n                1,\n                1,\n                address(this),\n                block.timestamp\n            );\n\n        emit RemovedLiquidity(\n            _tokenA,\n            _tokenB,\n            msg.sender,\n            amountA,\n            amountB,\n            liquidityAmount\n        );\n\n        return (amountA, amountB);\n    }\n}\n",
  "sourcePath": "/Users/ryan/Desktop/Projects/final/uniswap-integration/contracts/UniswapIntegration.sol",
  "compiler": {
    "name": "solc",
    "version": "0.7.6+commit.7338295f.Emscripten.clang"
  },
  "schemaVersion": "3.3.4",
  "updatedAt": "2021-04-23T03:33:22.803Z",
  "networkType": "ethereum",
  "devdoc": {
    "kind": "dev",
    "methods": {},
    "version": 1
  },
  "userdoc": {
    "kind": "user",
    "methods": {},
    "version": 1
  }
}